:0300000002009C5F
:0C009C00787FE4F6D8FD758107020003B0
:10007C00E4FDFCC3ED9FEC9E5015E4FBFA0BBB00BA
:0F008C00010ABA04F8BBFBF50DBD00010C80E4BE
:01009B002242
:10000300E4F97580FF7590FF75A0FF75B0FFE9C334
:1000130094085010A8017401088002C333D8FCF47B
:1000230052808043E9C39410501374F829F9F8748B
:1000330001088002C333D8FCF45290802AE9C394A8
:1000430018501374F029F9F87401088002C333D8E7
:10005300FCF452A0801174E829F9F87401088002B5
:10006300C333D8FCF452B07FF47E0112007C09E95B
:09007300C39420408DE4F980895A
:00000001FF
